:100000000C94D9000C9401010C9401010C94811DF5
:100010000C94AB1D0C94D51D0C9401010C940101A2
:100020000C9401010C9401010C9401010C94010148
:100030000C9401010C9401010C9401010C94010138
:100040000C94CD210C9401010C944B230C94992316
:100050000C9401010C9401010C9401010C94010118
:100060000C9401010C9401017C3C3E5E2B3D3F2F22
:100070005B5D3B2C2A225C0000C2010001001100E4
:1000800011000C0000E100000A00250025002100FD
:10009000009600001900390039003600127A00007D
:1000A0001F004600460044008070000022004D0002
:1000B0004D004A00004B00003600750075007200CC
:1000C000403800004A009C009C00990080250000F8
:1000D0007200EC00EC00E900C0120000E900DA0157
:1000E000DA01D70160090000D701B603B603B303F4
:1000F000B0040000B3036E076E076B0758020000E0
:100100006E07DC0EDC0ED80E2C010000DC0EC11DCB
:10011000C11DBE1D00000000240027002A000000B1
:100120000000250028002B0000000000230026000E
:10013000290004040404040404040202020202026A
:10014000030303030303010204081020408001029B
:10015000040810200102040810200000000700021B
:100160000100000304060000000000000000494EEA
:1001700046494E4954594E414ECDCCCC3D0AD72329
:100180003C17B7D13877CC2B329595E6241FB14F69
:100190000A000020410000C84200401C4620BCBEAE
:1001A0004CCA1B0E5AAEC59D74001A0319060525CC
:1001B000130311241FBECFEFD8E0DEBFCDBF12E086
:1001C000A0E0B1E0E4EAF0E502C005900D92AC36A3
:1001D000B107D9F717E0ACE6B2E001C01D92A53334
:1001E000B107E1F711E0C0EBD1E004C02297FE01B6
:1001F0000E94FF27CA3AD107C9F70E945B250C94D9
:1002000045280C940000662777270C947501FC01A3
:1002100088279927E89421912032E9F3293010F0BA
:100220002E30C8F32B3241F02D3239F4689404C0DB
:100230000E946D01820F911D219120532A30C0F33D
:100240001EF4909581959F4F0895FB01DC0104C039
:100250008D910190801921F441505040C8F7881BBE
:10026000990B0895FC018191861721F08823D9F715
:10027000992708953197CF010895FB01DC01019082
:100280000D920020E1F70895FB01DC014150504040
:1002900048F001900D920020C9F701C01D92415015
:1002A0005040E0F70895FB0151915523A9F0BF019B
:1002B000DC014D9145174111E1F759F4CD01019051
:1002C000002049F04D9140154111C9F3FB01411146
:1002D000EFCF81E090E0019708957AE0979F902D0D
:1002E000879F802D910D11240895A0E0B0E0EBE7E9
:1002F000F1E00C941428EC015B016115710519F013
:10030000FB0191838083F9908F2D90E00E94032858
:10031000892BC9F7FDE2FF1621F4F990EE24E3944E
:1003200005C02BE2F21609F4F990EE248E0101507B
:100330001040C8016EE671E043E050E00E94D50233
:10034000892B01F58E010E5F1F4FC80161E771E037
:1003500045E050E00E94D502892B19F48E01095F17
:100360001F4FA114B10419F0F50111830083E0FCC3
:1003700004C070E090E080E814C070E090E080E895
:100380006FEF08C1C80166E771E043E050E00E94EA
:10039000D502892B69F4A114B10429F470E090E02E
:1003A00080EC6FE7F7C02296F501D183C083F6CFCA
:1003B0008824992440E050E060E070E0EF2DE053A5
:1003C000EA30A0F5F2E0EF2A8E2D90E09C01287033
:1003D0003070E2FE06C0232B79F50894811C911C35
:1003E0002BC0232B19F0089481089108DB01CA0166
:1003F00012E0880F991FAA1FBB1F1A95D1F7480F4B
:10040000591F6A1F7B1F440F551F661F771F4E0F12
:10041000511D611D711D483929E9520729E96207FB
:1004200029E1720748F084E0E82A06C0EE3F31F483
:10043000E3FC39C098E0E92AF990C0CFE53311F028
:10044000E53189F529912D3219F4E0E1EE2A05C054
:100450002B3219F081E090E003C0299182E090E016
:10046000E22FE053EA3018F0C81BD90B1CC020E083
:1004700030E0FCE020383F075CF4C901880F991F89
:10048000880F991F280F391F220F331F2E0F311D80
:10049000E991E053EA3068F3E4FE03C0309521951A
:1004A0003F4F820E931ECE2CDD24E1FE07C0A11427
:1004B000B10421F02197F501D183C083CB01BA01AA
:1004C0000E9416267B018C01F3E0CF22DD2423E07D
:1004D000C216D10421F417FB109517F91095570196
:1004E0006801C801B70120E030E040E050E00E9420
:1004F000E625882309F44AC097FE0DC02DE8E22EB8
:1005000021E0F22E9094819491089394C0E2D0E07F
:1005100000E010E012C095EAE92E91E0F92EF6CF46
:10052000F7012591359145915491C601B5010E947D
:1005300026275B016C018C1A9D0A8C169D0684F798
:10054000D595C7950F5F1F4F0630110529F08CEF29
:100550009FEFE80EF91EF1CFC501D6017C018D0198
:100560008C2D880F8D2D881F8F3F51F0C601B5014E
:1005700020E030E040E050E00E94E625882331F49E
:1005800082E290E090933407809333077E2D9F2D75
:10059000802F612F272F392F482F562FB901CA01DD
:1005A000CDB7DEB7ECE00C943028FB01DC01415004
:1005B000504088F08D9181341CF08B350CF4805EB6
:1005C000659161341CF06B350CF4605E861B611123
:1005D00071F3990B0895881BFCCF81309105A9F424
:1005E0006F5F7F4FF9F48CE692E060E041E020E03D
:1005F0000E946A2088E892E06CE672E00E94BD1AD0
:1006000087EC92E00E94CA040895892B59F46F5F29
:100610007F4F41F487EC92E00E94DD048CE692E08B
:100620000E94F11E089580E090E06FEF7FEF0E943E
:10063000ED02089581E090E06FEF7FEF0E94ED0200
:1006400008950F931F93082F30C083E061E00E944C
:10065000F62262E370E080E090E00E94232283E0D3
:1006600060E00E94F62269E170E080E090E00E9484
:10067000232284E061E00E94F62262E370E080E0E1
:1006800090E00E94232284E060E00E94F6221F5F37
:100690001017D8F2102F07C062E370E080E090E0FE
:1006A0000E9423221F5F1A30B8F310E0F1CFEF92BF
:1006B000FF920F931F9388E892E00E94ED1988E85B
:1006C00092E00E94CD1A882309F471C088E892E074
:1006D0000E94D01ABC0188E892E00E94F71A882391
:1006E00009F465C08DE097E060E071E00E94D325D9
:1006F0008091B302882339F084E061E00E94F62201
:1007000083E060E006C084E060E00E94F62283E0BF
:1007100061E00E94F62264E670E080E090E00E94D2
:10072000232284E060E00E94F62283E060E00E94E1
:10073000F6228091B302882339F48DE097E063E0DC
:1007400071E00E94D02533C08DE097E06AE071E04F
:100750000E94D32588E892E00E94D01AF82EE92E54
:10076000E82FF92FDF010D900020E9F71197A81B62
:100770000A2F10E087EC92E06F2D7E2DA8010E94D9
:1007800089050817190719F084E00E9421038F2DAD
:100790009E2D6EE071E00E945301009721F087ECDE
:1007A00092E00E9427058DE097E00E9494251F911A
:1007B0000F91FF90EF900895EF92FF920F931F9388
:1007C000DF93CF93CDB7DEB7AA970FB6F894DEBF0D
:1007D0000FBECDBF8DE097E040E855E260E070E0ED
:1007E0000E94D4238DE097E062E171E00E94D3255E
:1007F00083E061E00E94B72284E061E00E94B722BA
:1008000082E061E00E94B7228AE061E00E94B722A4
:1008100082E061E00E94F62282EE92E06AE04FEF11
:100820002FEF0FEF0E945D09882349F48DE097E0D8
:100830006EE271E00E94D32582E00E9421038E01C6
:100840000F5F1F4FC80161E471E00E943D01FF246A
:10085000E02E012F8F2D6AE00E94A827805D8F83F4
:100860008F2D0E94A827905D988782EE92E06E2DD2
:10087000702F0E94FC06882321F0F39484E6F8167A
:1008800049F7CE01409662EE72E0AE014F5F5F4FD6
:1008900023E10E942B088A899B899093CA02809346
:1008A000C9028C899D89AE89BF898093CB029093C0
:1008B000CC02A093CD02B093CE02888D998DAA8DE3
:1008C000BB8D8093CF029093D002A093D102B093BE
:1008D000D202A3EDB2E0FE017C968DE001900D9274
:1008E0008150E1F789A59AA59093E1028093E002F7
:1008F000CE0140960E94DD0487EC92E00E941A052A
:10090000882381F48DE097E06EE471E00E94D025A9
:100910008DE097E0BE016F5F7F4F0E94D32583E09B
:100920000E9421038DE097E06EE571E00E94D025E2
:100930008DE097E0BE016F5F7F4F0E94D32588E86E
:1009400092E060E875E20E94E11A88E892E06AE6C7
:1009500071E00E94D71A88E892E06CE971E00E9489
:10096000D71A88E892E06DEA71E00E94D71A8DE00C
:1009700097E06CEB71E00E94D325AA960FB6F8942D
:10098000DEBF0FBECDBFCF91DF911F910F91FF90C2
:10099000EF900895FC011382128288EE93E0A0E0AC
:1009A000B0E084839583A683B78385E392E0918347
:1009B0008083128E118E14860895FC0185E392E0E7
:1009C000918380830895FC01A18DB28D109719F455
:1009D00020E030E009C0ED91FC9111970190F08189
:1009E000E02DCD0109959C01C9010895DC015996BE
:1009F000ED91FC915A97309719F420E030E018C03F
:100A0000248935894689578983859485A585B68546
:100A1000281B390B4A0B5B0B2030B0E83B07B0E0DA
:100A20004B07B0E05B0720F02FEF3FE740E050E0DE
:100A3000C9010895DC015996ED91FC915A973097C0
:100A400011F480E008958681811181E00895FC0110
:100A5000818D928D009711F00E94820E0895DF9390
:100A6000CF930F92CDB7DEB7FC01818D928D0097A9
:100A700049F0BE016F5F7F4F41E050E00E94A30F3D
:100A8000019719F02FEF3FEF03C08981282F30E045
:100A9000C9010F90CF91DF910895EF92FF920F93CC
:100AA0001F93DF93CF930F92CDB7DEB77C01DC01AC
:100AB00059968D919C915A97009719F400E010E097
:100AC0001FC0BE016F5F7F4F41E050E00E94A30F47
:100AD000019719F00FEF1FEF13C08981082F10E065
:100AE000D7015996ED91FC915A97438554856585B8
:100AF00076854150504060407040CF010E94BC0D4F
:100B0000C8010F90CF91DF911F910F91FF90EF904F
:100B10000895FC01818D928D009719F420E030E05A
:100B200003C00E94E8119C01C9010895FC01818D58
:100B3000928D009719F420E030E003C00E94A113C9
:100B40009C01C9010895EF92FF920F931F93CF93D9
:100B5000DF93EC01F62EE72E8A011B821A8288EEC3
:100B600093E0A0E0B0E08C839D83AE83BF8385E3F8
:100B700092E0998388838EE190E00E9498209A8F7A
:100B8000898F009791F0DC018F2D9E2D9C01F9013A
:100B90008EE101900D928150E1F7CE010C96B801E3
:100BA0004CE050E00E944401188EDF91CF911F91DC
:100BB0000F91FF90EF9008950F931F93CF93DF93C2
:100BC0008C01FB01C081D181FC01EC0FFD1F8081F4
:100BD0008F3209F4219698012C0F3D1FA0E0B0E060
:100BE0000BC0FA01EA0FFB1F8083119621962F5F3D
:100BF0003F4FAC30B10531F0F90180818F3211F0F7
:100C0000882379F7A40FB51F1C92F801EC0FFD1F84
:100C100080818F3209F42196FB01D183C083C00FFC
:100C2000D11F8881811181E0DF91CF911F910F91B8
:100C300008951092E7021092E8021092EB021092CF
:100C4000ED0282E090E0A0E0B0E08093EF029093AC
:100C5000F002A093F102B093F202109206031092F8
:100C6000100310920F0387E492E090930E03809399
:100C70000D03109213030895EF92FF921F93DF93D9
:100C8000CF93CDB7DEB76E970FB6F894DEBF0FBE29
:100C9000CDBF9C01AB011C821B8287E492E09A834A
:100CA00089831F827E010894E11CF11CC701B901F0
:100CB00021E00E942114182F882319F0C7010E94F7
:100CC000CC0E812F6E960FB6F894DEBF0FBECDBF4F
:100CD000CF91DF911F91FF90EF9008952F923F9257
:100CE0004F925F926F927F928F929F92BF92CF921C
:100CF000DF92EF92FF920F931F93DF93CF93CDB7C5
:100D0000DEB7CB54D0400FB6F894DEBF0FBECDBFD8
:100D10001C017B012A0139011B8A1A8A87E492E0AF
:100D2000998B888B1E8A19AA18AA9FA78EA71CAA1E
:100D30001A8219828B0120E1C22ED12CCC0EDD1E2D
:100D400093E0892E912C8C0E9D1E03C0C801860154
:100D50006C01C101BE016F5F7F4FA4010E94DC05E1
:100D6000B82E40E0882309F441E0C801B4019301A2
:100D7000F2010995882339F40E151F0519F1C801F0
:100D80000E94CC0E1FC0BB20A9F0C601B801A4016F
:100D900021E00E942114B82E0E151F0519F0C8017C
:100DA0000E94CC0EBB2071F00E151F0579F6CE0106
:100DB0008E96CDCF0E151F0519F0C8010E94CC0EDE
:100DC00081E001C080E0C55BDF4F0FB6F894DEBF65
:100DD0000FBECDBFCF91DF911F910F91FF90EF908C
:100DE000DF90CF90BF909F908F907F906F905F909B
:100DF0004F903F902F9008959B01BC01655D7F4F00
:100E0000C9014CE356E020E030E00E946E060895F0
:100E10002F923F924F925F926F927F928F929F920A
:100E2000AF92BF92CF92DF92EF92FF920F931F93F8
:100E3000DF93CF93CDB7DEB7C954D0400FB6F89447
:100E4000DEBF0FBECDBF582E492EFB013A0119015E
:100E500085A596A5998B888B27E432E03F872E875E
:100E600087A58A8B80A98B8B81A98C8B82A993A95A
:100E7000A4A9B5A98D8B9E8BAF8BB88F86A997A996
:100E8000A0ADB1AD898F9A8FAB8FBC8F82AD93AD82
:100E9000A4ADB5AD8D8F9E8FAF8FB8A386AD89A35E
:100EA000FF9681919191A191B1918AA39BA3ACA34B
:100EB000BDA381919191A191B1918EA39FA3A8A768
:100EC000B9A7808191819BA78AA71FA61EA63DA7CF
:100ED0002CA71AAA7A018E01025F1F4F3CE2A32EB3
:100EE000B12CAC0EBD1E4E010894811C911C35C066
:100EF000D7018C918F3221F40894E11CF11C2DC094
:100F0000422F4E194D3008F04CE0C42EDD24C401B0
:100F1000B701A6010E944401F401EC0DFD1D1082F1
:100F2000C5010E94CC0EC501B801A40121E00E94B8
:100F30002114882351F4E52DF42D1382128287E4C5
:100F400092E09183808316826AC0EC0CFD1CC8017C
:100F50000E94CC0EC50158018C01C7016FE270E000
:100F60000E9432019C01009719F6E618F708F1017A
:100F7000F182E082E52DF42DD80112968D919C919D
:100F800013979383828387E492E0918380831496FE
:100F90008C911497848315968C911597858316965A
:100FA0008C911697868317962D913D914D915C916A
:100FB0001A9727833087418752871B962D913D9141
:100FC0004D915C911E9723873487458756871F96DE
:100FD0002D913D914D915C9152972787308B418B9C
:100FE000528B53968C915397838B54962D913D91B0
:100FF0004D915C915797248B358B468B578B589628
:101000002D913D914D915C915B97208F318F428F57
:10101000538F5C968D919C915D97958F848F852DD4
:10102000942DC75BDF4F0FB6F894DEBF0FBECDBF68
:10103000CF91DF911F910F91FF90EF90DF90CF90B4
:10104000BF90AF909F908F907F906F905F904F90E8
:101050003F902F9008959F92AF92BF92CF92DF92D0
:10106000EF92FF920F931F93DF93CF93CDB7DEB72D
:10107000CA57D0400FB6F894DEBF0FBECDBFC82E02
:10108000992E8A01D22E43E0A42EB12CAC0EBD1EA7
:10109000C501A8019E012F5F3F4F0E940807E9800C
:1010A000FA80E00EF11EF701808147E452E02985C5
:1010B000882309F041C08D819E819CA38BA35AA3F4
:1010C00049A38F818DA388858EA32FA38A859B85B5
:1010D000AC85BD8588A799A7AAA7BBA78E859F8544
:1010E000A889B9898CA79DA7AEA7BFA78A899B8924
:1010F000AC89BD8988AB99ABAAABBBAB8E898CABF5
:101100008F89988DA98DBA8D8DAB9EABAFABB8AFE3
:101110008B8D9C8DAD8DBE8D89AF9AAFABAFBCAFC3
:101120008F8D98A19EAF8DAF8C2D992DBE016F5DD7
:101130007F4F43EC51E0AAC0FE01EF5BFF4F1182ED
:101140001082DE01DF9611965C934E93FE01EB5BFD
:10115000FF4F10822223A9F02250223050F4CD01FB
:101160006DE073E0A7012D2D0E942114882389F4DE
:1011700008C0CD01B501A7012D2D0E94211488239F
:1011800029F48C2D992D0E94CA0482C0C5010E94A9
:10119000CC0EF6E0DF2259F0FE01ED5AFF4F408100
:1011A000518162817381CE01CF960E94BC0D9E0158
:1011B000235A3F4FFE01EF5BFF4F80819181F90180
:1011C0009383828387E492E091838083FE01ED5BC9
:1011D000FF4F8081F9018483FE01EC5BFF4F80812A
:1011E000F9018583FE01EB5BFF4F8081F901868366
:1011F000FE01EA5BFF4F80819181A281B381F901F9
:1012000087839087A187B287FE01E65BFF4F8081CD
:101210009181A281B381F90183879487A587B687DD
:10122000FE01E25BFF4F80819181A281B381F901D0
:101230008787908BA18BB28BFE01EE5AFF4F808186
:10124000F901838BFE01ED5AFF4F80819181A281CC
:10125000B381F901848B958BA68BB78BFE01E95A7C
:10126000FF4F80819181A281B381F901808F918F9D
:10127000A28FB38FFE01E55AFF4F80819181F90162
:10128000958F848F8C2D992DB901A7010E94A305FC
:101290008C2D992DC658DF4F0FB6F894DEBF0FBEC8
:1012A000CDBFCF91DF911F910F91FF90EF90DF9015
:1012B000CF90BF90AF909F900895EF920F931F93A0
:1012C000CF93DF93EC01362F542F722FE02E61E085
:1012D000432F252F072F0E94430C8823D1F08E0126
:1012E000035F1F4FC801BE0141E00E94C215882361
:1012F00039F4C801BE0140E00E94C215882349F0BC
:10130000CE018B96B8010E940211882319F081E06A
:1013100001C080E0DF91CF911F910F91EF90089570
:10132000382F80912D038F3F29F43EBD0DB407FE69
:10133000FDCF0895F894A0912E03B0912F03509102
:101340003003252F2095E0913103F0913203409135
:101350003303642F609590E08C9182238C9337FF48
:1013600003C08081842B02C08081862380838C917E
:10137000852B8C939F5F983011F0330FEDCF0000D9
:101380000000000000008C9128232C93789408958D
:1013900080912D038F3F21F40E9490092EB530C01B
:1013A000F894E0913103F0913203808190913303FE
:1013B000892B8083E0912E03F0912F0360913003FD
:1013C000A0913403B091350380913603482F50E04B
:1013D000762F709530E020E08081862B8083220F6D
:1013E0008C9190E084239523892B09F021608081E2
:1013F00087238083000000003F5F383069F77894CE
:10140000822F0895FC01673020F086E1858380E01B
:101410000895262F30E060FD02C0663019F48DB5C6
:101420008E7F02C08DB581608DBD8CB58C7F8CBDEB
:101430004CB522FD02C090E001C092E036952795A0
:10144000822F8170842B892B8CBD81E008950F93AE
:101450001F93CF93DF938B010E941522EB010E9413
:10146000C8098F3F11F481E008C00E9415226C1B4F
:101470007D0B6017710798F380E0DF91CF911F918A
:101480000F910895FC01848160E00E94F622089586
:10149000FC01848161E00E94F6220895CF92DF92E0
:1014A000EF92FF920F931F93CF93DF937C016A011A
:1014B000FC018485882319F40FEF1FEF30C000E092
:1014C00010E040E050E0212F332727FD3A95F60148
:1014D000E40FF51F808190E0282739273070C9017B
:1014E000F4E095958795FA95E1F782279327102FD9
:1014F0000027082719279C01322F22273295307F99
:101500000227132725E0880F991F2A95E1F708275E
:1015100019274F5F5F4FF2E040305F07A1F6862F3B
:101520000E949009C0E0D0E0F601EC0FFD1F808121
:101530000E949009219682E0C030D807A9F7812F38
:10154000992787FD9A950E949009802F0E94900903
:101550000E94C809F70182878F71853011F481E0FC
:1015600007C081E1F7018583C7010E94480A80E036
:10157000DF91CF911F910F91FF90EF90DF90CF906F
:1015800008950F931F93CF93DF93EC010E941522D0
:101590008B0109C00E941522601B710B6D527140B6
:1015A00010F08FE00AC00E94C8098A878F3F91F32C
:1015B0008E3F11F481E006C08DE08D83CE010E9444
:1015C000480A80E0DF91CF911F910F910895CF934A
:1015D000DF93EC018E81882319F40FC00E94C809A3
:1015E0008F819885019698878F83019782509240CA
:1015F000A8F3CE010E94480A1E82DF91CF91089580
:10160000DF92EF92FF920F931F93CF93DF93EC0142
:10161000D62E79018A010E94E70ACE010E94420A71
:10162000CE016CE271E00E94270A8D2D80640E9439
:101630009009812F9927AA27BB270E949009C801EA
:10164000AA27BB270E949009BB27A12F902F8F2D7F
:101650000E9490098E2D0E949009DD2011F485E9E9
:1016600006C088E0D81611F487E801C08FEF0E9409
:10167000900910E00E94C8098A8787FF02C01150B4
:10168000C9F7DF91CF911F910F91FF90EF90DF90FD
:101690000895CF92DF92EF92FF920F931F93CF9313
:1016A000DF93EC017A018B01690141155105610558
:1016B000710511F482E133C08B85833039F039E054
:1016C000EE0CFF1C001F111F3A95D1F7CE0168E107
:1016D000A80197010E94000B882311F084E01FC02D
:1016E000CE016EEFA6010E944E0A8823C9F0CE01FA
:1016F00068E572E00E94270A882311F485E10FC093
:10170000CE016DE020E030E040E050E00E94000BB0
:10171000882321F40E94C809882379F084E18D830D
:10172000CE010E94480A80E0DF91CF911F910F9176
:10173000FF90EF90DF90CF900895CE010E94480A6D
:1017400081E0F2CF6F927F928F929F92AF92BF9281
:10175000CF92DF92EF92FF920F931F93CF93DF937D
:10176000EC015A016B01390148010115110509F419
:101770006AC0C801820F931F8150924008F05EC07A
:101780008E81882371F088819981AA81BB81481755
:1017900059076A077B0729F48F81988568167906AF
:1017A00050F5A882B982CA82DB828B85833039F0FA
:1017B000E9E0AA0CBB1CCC1CDD1CEA95D1F7CE01DC
:1017C00061E1A60195010E94000B882319F083E0D6
:1017D0008D8334C0CE010E94C10A882379F1188616
:1017E0001F8281E08E8307C00E94C8098F8198857F
:1017F000019698878F838F81988586159705A0F32A
:1018000000E010E008C00E94C809F701E00FF11FD6
:1018100080830F5F1F4F08151905A8F32F813885A6
:10182000280D391D38872F838985882319F020508A
:10183000324048F0CE010E94E70A05C0CE010E9466
:10184000480A80E001C081E0DF91CF911F910F91A4
:10185000FF90EF90DF90CF90BF90AF909F908F90D0
:101860007F906F900895EF92FF920F931F937901ED
:1018700020E030E000E012E00E94A20B1F910F91E7
:10188000FF90EF900895BF92CF92DF92EF92FF9278
:101890000F931F93CF93DF93EC01B62E1E2D1B8663
:1018A00019861E821D821C864C8320933703009369
:1018B0003803E0922D030E9415226B018C8161E0B8
:1018C0000E94B722CE010E94480A1F3F09F462C05D
:1018D0008091380360E00E94B7228091370361E075
:1018E0000E94B72280912D0361E00E94B722E0910F
:1018F0002D032E2F332727FD3095F901EE5CFE4F87
:10190000E491F0E0EE0FFF1FE25EFE4F85919491AF
:1019100090932F0380932E032A5B3E4FF90184910D
:1019200080933003E09137032E2F332727FD309526
:10193000F901EE5CFE4FE491F0E0EE0FFF1FE25E76
:10194000FE4F8591949190933203809331032A5BEB
:101950003E4FF901849180933303E09138032E2F99
:10196000332727FD3095F901EE5CFE4FE491F0E05E
:10197000EE0FFF1FE85DFE4F859194919093350324
:10198000809334032A5B3E4FF901849180933603A0
:1019900010E01AC08CE060E00E94B7228BE061E0AA
:1019A0000E94B7228DE061E00E94B7228AE061E0E8
:1019B0000E94B7228AE061E00E94F62283E58CBD96
:1019C0008DB58E7F8DBDE4CF8FEF0E9490091F5F94
:1019D0001A30D1F7CE010E94420A09C00E94152296
:1019E0006C197D09615D774010F081E05AC0CE012D
:1019F00060E020E030E040E050E00E94000B182F53
:101A00008A87813059F7CE0168E02AEA31E040E068
:101A100050E00E94000B82FF02C01B870DC010E047
:101A20000E94C8098A871F5F1430D1F78A3A11F0E3
:101A300082E037C082E08B878B85823021F0EE24F4
:101A4000FF2487010FC0E12CF12C012DB0E41B2FE6
:101A500009C00E9415226C197D09615D774010F064
:101A600088E01FC0CE0167E320E030E040E050E0B6
:101A70000E94000BCE0169E2A80197010E94000BB1
:101A80008A87882331F78B858230F1F4CE016AE3AF
:101A900020E030E040E050E00E94000B882339F065
:101AA00086E08D83CE010E94480A80E01AC00E9421
:101AB000C809807C803C11F483E08B870E94C809B0
:101AC0000E94C8090E94C809CE010E94480A80915C
:101AD0002D038F3F11F081E004C0CE016B2D0E94D9
:101AE000020ADF91CF911F910F91FF90EF90DF904D
:101AF000CF90BF900895CF93DF93EC01DB0180E09E
:101B000090E020E2FD01E80FF91F208301968B3061
:101B10009105C1F740E057E021C02E3219F088E668
:101B200090E007C05A3019F148E05AE017C0321768
:101B3000F1F0FC01019634913323C9F75417B8F042
:101B40002132A8F02F3798F4822F81568A3108F479
:101B50002052FD01E40FF11D20834F5F29912223C4
:101B6000E1F690E08C91803219F091E001C090E0B4
:101B7000892FDF91CF9108956F927F928F929F92DC
:101B8000AF92BF92CF92DF92EF92FF920F931F938B
:101B9000CF93DF93EC017A018B012E81222309F48C
:101BA00080C08C899D89AE89BF8984179507A60757
:101BB000B70708F476C085C0E114F10401051105EA
:101BC00049F41F82188619861A861B861C861D8674
:101BD0001E8665C02B853C854D855E85EC8DFD8D13
:101BE000858590E0099621503040404050403901B1
:101BF0004A01082E04C096948794779467940A94B7
:101C0000D2F72F5F3F4F4F4F5F4F0894E108F10825
:101C1000010911095701680104C0D694C794B7940B
:101C2000A7948A95D2F70894E11CF11C011D111D9F
:101C3000A614B704C804D90428F0211531054105BC
:101C4000510549F4888D998DAA8DBB8D8F83988716
:101C5000A987BA8716C0A618B708C808D90811C03E
:101C60004F81588569857A858C8D9D8D94010E9460
:101C7000A3170894A108B108C108D108882331F43A
:101C800010C087E0882E912C8C0E9D1EA114B104EB
:101C9000C104D10429F7EB86FC860D871E8781E0FD
:101CA00001C080E0DF91CF911F910F91FF90EF90E5
:101CB000DF90CF90BF90AF909F908F907F906F906C
:101CC0000895223009F078CFE6CFCF93DF93EC016F
:101CD000462F6F85788989899A890E94871588237C
:101CE00019F420E030E00AC08B89282F30E095E01D
:101CF000220F331F9A95E1F7255C3C4FC901DF9114
:101D0000CF9108950F931F93CF93DF938C01FC0124
:101D100086818823D9F1858187FF35C0C80161E0BC
:101D20000E94650EEC01009789F1F80186818230EE
:101D300040F484899589A689B7898C8F9D8FAE8F51
:101D4000BF8FF801808D918D9B8F8A8F808D918DB3
:101D5000A28DB38DCD01AA27BB279D8B8C8BE091E3
:101D60003903F0913A03309751F0BE016A5E7F4F1C
:101D7000CE0148960995888D998D9B8B8A8BF801A9
:101D800085818F7785830E94281501C080E0DF91CF
:101D9000CF911F910F910895CF93DF93EC010E9493
:101DA000820E882311F01E8281E0DF91CF91089589
:101DB0006F927F928F929F92AF92BF92CF92DF925B
:101DC000EF92FF920F931F93DF93CF9300D000D039
:101DD000CDB7DEB77C015A016B01DC0116968C9100
:101DE0001697813009F08FC015968C9181FF8BC0BA
:101DF0009EC00097A105B10511F481E085C0F701EF
:101E00006384748485849684C701B601A5010E9409
:101E1000BC0D882309F477C0D7015C968D919C9105
:101E20005D97A114B104C104D10489F458964D9171
:101E30005D916D917C915B970E941618882309F43F
:101E400062C0F701108E118E128E138E3DC0D70125
:101E500017964D915D916D917C911A979E012F5F20
:101E60003F4F0E94A317882309F44DC0D7015C9609
:101E7000ED91FC915D9749815A816B817C818789C5
:101E8000803129F088EF9FEFAFEFBFE004C088EF0B
:101E90009FEFA0E0B0E0481759076A077B07A0F45E
:101EA000CF010E941618882371F1F70147815085F0
:101EB00061857285848D958D0FEF1FEF2FEF3FE0C9
:101EC0000E9407178823F9F0D7015496AD92BD926E
:101ED000CD92DC92579715968C9115978068159640
:101EE0008C93C7010E94820E882369F0B601A50178
:101EF0006A147B048C049D0410F4B401A301C7018F
:101F00000E94BC0D01C080E00F900F900F900F90C9
:101F1000CF91DF911F910F91FF90EF90DF90CF90C5
:101F2000BF90AF909F908F907F906F900895F70132
:101F300084899589A689B78984179507A607B70765
:101F400008F057CFE0CF2F923F924F925F926F925F
:101F50007F928F929F92AF92BF92CF92DF92EF9239
:101F6000FF920F931F93CF93DF93EC012A018E8191
:101F7000882309F4C6C08D8180FFC3C0D8C0250165
:101F80004E185F084B0177E0272E312C2C0E3D1E9A
:101F90003201B1C02B853C854D855E856FEFA62E45
:101FA00061E0B62EA222B3228E8179018A0199E0E6
:101FB00016950795F794E7949A95D1F7EC8DFD8DDA
:101FC000823049F4428D538D648D758D4E0D5F1DA9
:101FD000601F711F3FC0D480DA94DE20A114B104C9
:101FE000D9F4DD20C9F4211531054105510549F425
:101FF000888D998DAA8DBB8D8F839887A987BA8785
:102000000BC04F81588569857A85CF0191010E9467
:10201000A317882309F475C0EC8DFD8D4F81588579
:1020200069857A854250504060407040058404C004
:10203000440F551F661F771F0A94D2F78685978530
:10204000A089B189480F591F6A1F7B1F4D0D511D73
:10205000611D711D80E092E08A199B09630186155C
:10206000970508F46C018D8186FD06C080E0C816D6
:1020700082E0D80609F073C080912702909128026F
:10208000A0912902B0912A02481759076A077B07D5
:1020900009F465C080913B0590913C05950186014E
:1020A00074010E94A20B882361F18C0C9D1C12C04C
:1020B0009501255C3C4FA9014C0D5D1DD401F90132
:1020C00002C081918D93E417F507D9F7E21BF30B5A
:1020D0008E0E9F1E960140E050E08B859C85AD855D
:1020E000BE85820F931FA41FB51F8B879C87AD876A
:1020F000BE876C187D086114710409F04BCFA201F2
:1021000002C04FEF5FEFCA01DF91CF911F910F9196
:10211000FF90EF90DF90CF90BF90AF909F908F9007
:102120007F906F905F904F903F902F900895AC8874
:10213000BD88CE88DF88EB84FC840D851E859A01DE
:1021400040E050E0D601C5018E199F09A00BB10BEC
:1021500082179307A407B50708F411CF13CFCB015B
:10216000BA0140E00E948715882309F0A1CFC9CFAA
:10217000CF92DF92EF92FF920F931F93DF93CF9353
:102180000F92CDB7DEB76C01FC018681823070F012
:10219000E384F48405851685C601BE016F5F7F4F19
:1021A00041E050E00E94A30F019769F020E030E089
:1021B000C9010F90CF91DF911F910F91FF90EF9088
:1021C000DF90CF900895F60183859485A585B68527
:1021D0004F96A11DB11D83879487A587B687F5E02B
:1021E00016950795F794E794FA95D1F78E2D8F7091
:1021F000282F30E0E5E0220F331FEA95E1F7255C58
:102200003C4FD6CF0F931F93CF93DF93EC018B01FD
:102210008E81882309F041C0FB0187898031B1F4A8
:1022200082E08E83188E198E1A8E1B8E808D918D72
:10223000A0E0B0E045E0880F991FAA1FBB1F4A9598
:10224000D1F78C8B9D8BAE8BBF8B15C0803229F55F
:1022500083E08E83FB01428D538D648D758D488F95
:10226000598F6A8F7B8F9E012C5E3F4FC8010E9461
:102270006F18882391F01D8F0C8F81E08D831F8252
:10228000188619861A861B861C861D861E861F8642
:10229000188A198A1A8A1B8A01C080E0DF91CF91BF
:1022A0001F910F9108951F93CF93DF93EC01142F8B
:1022B000E62FF0E075E0EE0FFF1F7A95E1F7E55CA1
:1022C000FC4F8385817121F0842F827409F054C002
:1022D0006B8B8091270290912802A0912902B091E6
:1022E0002A028F87988BA98BBA8B84899589A0E065
:1022F000B0E0BC0155274427828D938DA0E0B0E06B
:10230000482B592B6A2B7B2B488F598F6A8F7B8FD9
:10231000838590E088719070009751F4848D958D3D
:10232000A68DB78D8C8B9D8BAE8BBF8B81E00CC047
:10233000409711F59E012C5E3F4F8C8D9D8D0E9424
:102340006F188823C9F084E08E83812F8F708D836E
:102350001F82188619861A861B861C861D861E8675
:1023600016FD02C081E009C0CE0140E050E060E00F
:1023700070E00E94D80E01C080E0DF91CF911F91E4
:102380000895CF93DF93EC019C01295F3F4F8C8D23
:102390009D8D41E050E060E070E00E94DE188823EF
:1023A000A1F0888D998DAA8DBB8D0097A105B105EF
:1023B00059F48F819885A985BA85888F998FAA8FBE
:1023C000BB8F8D8180688D8381E0DF91CF910895EF
:1023D0002F923F924F925F927F928F929F92AF92F5
:1023E000BF92CF92DF92EF92FF920F931F93DF93F2
:1023F000CF9300D000D000D0CDB7DEB76C01162F40
:10240000072F5E834D83DC0116968C9116978130E1
:1024100009F072C115968C9181FF6EC18FC1F601D2
:10242000448955896689778983859485A585B6858C
:1024300084179507A607B70731F0C6010E94BC0DA7
:10244000882309F459C1812F902F9C0129012D80E7
:102450003E8019C1D6015C96ED91FC915D97DA0141
:10246000C90119E0B695A795979587951A95D1F763
:1024700074807A9478227FEF872E71E0972E8222E3
:102480009322772009F050C08114910409F04CC0C8
:10249000D60117964D915D916D917C911A974115DA
:1024A00051056105710581F458968D919D910D90AE
:1024B000BC91A02D0097A105B10559F1F6018783C4
:1024C0009087A187B28730C0CF019E012F5F3F4F19
:1024D0000E94A317882319F41E821D8215C1298129
:1024E0003A814B815C81D6015C96ED91FC915D97C0
:1024F0008789803129F088EF9FEFAFEFBFE004C0FC
:1025000088EF9FEFA0E0B0E0281739074A075B0784
:1025100030F0C6010E94C111882331F4EDC0F601EC
:10252000278330874187528780E092E08819990994
:1025300051018215930508F45C01D6015C96ED917A
:10254000FC915D971796ED90FD900D911C911A9757
:102550008EEF9FEFAFEFBFEFE80EF91E0A1F1B1FB4
:10256000058404C0EE0CFF1C001F111F0A94D2F753
:1025700086859785A089B189E80EF91E0A1F1B1F61
:10258000E70CF11C011D111D90E0A91692E0B9069F
:1025900051F58091270290912802A0912902B091D3
:1025A0002A028E159F05A007B10761F48FEF9FEFF8
:1025B000AFEFBFEF8093270290932802A0932902E8
:1025C000B0932A0280913B0590913C05B801A70188
:1025D00092010E94490B882309F48EC0A0E0B2E06A
:1025E0004A0E5B1E3EC08114910409F5F601238555
:1025F00034854585568584899589A689B7892817A4
:1026000039074A075B0798F00E942815882309F4C8
:1026100073C0E0922702F0922802009329021093DF
:102620002A0280913D05816080933D0508C0C80164
:10263000B70141E00E948715882309F45DC0940129
:10264000255C3C4FA9014A0D5B1DD201F90102C076
:102650008D918193E417F507D9F7E21BF30B4E0E2A
:102660005F1E2A183B08950140E050E0F601838583
:102670009485A585B685820F931FA41FB51F8387F8
:102680009487A587B687D6011B962D913D914D91D4
:102690005C911E972114310409F0DCCE54968D9183
:1026A0009D910D90BC91A02D82179307A407B507AB
:1026B00048F4F601248B358B468B578B85818068D7
:1026C000858311C08091390390913A03892B59F089
:1026D0008D819E81892B39F0D60115968C911597A5
:1026E000806815968C93F601858183FF0DC0C60125
:1026F0000E94820E882341F481E0D60114968C93C7
:10270000EFEFFFEFFE83ED838D819E8126960FB65E
:10271000F894DEBF0FBECDBFCF91DF911F910F9117
:10272000FF90EF90DF90CF90BF90AF909F908F90F1
:102730007F905F904F903F902F90089582FD6FCED5
:1027400082CEDB010D900020E9F71197A61BB70B95
:10275000AD010E94E8110895DF93CF930F92CDB79A
:10276000DEB76983BE016F5F7F4F41E050E00E949A
:10277000E8110F90CF91DF910895DF92EF92FF92D1
:102780000F931F93CF93DF93EC010E94C111882315
:1027900009F44EC0EC8DFD8DEF80F88409851A8513
:1027A0008EEF9FEFAFEFBFEFE80EF91E0A1F1B1F62
:1027B000058404C0EE0CFF1C001F111F0A94D2F701
:1027C00086859785A089B189E80EF91E0A1F1B1F0F
:1027D000D4800894E108F108010911090BC0C8016F
:1027E000B7016D0D711D811D911D0E946315882318
:1027F000F9F0DA94DD2099F7EC8DFD8D20E032E0E0
:1028000040E050E0058404C0220F331F441F551FD1
:102810000A94D2F78C899D89AE89BF89820F931F54
:10282000A41FB51F8C8B9D8BAE8BBF8B81E001C02D
:1028300080E0DF91CF911F910F91FF90EF90DF909B
:1028400008956F927F928F929F92AF92BF92CF9294
:10285000DF92EF92FF920F931F93DF93CF93CDB749
:10286000DEB72B970FB6F894DEBF0FBECDBF5C016D
:102870006B01822EDC0116968C91882309F0D2C060
:10288000CA018E010F5F1F4FB8010E947B0D882384
:1028900009F4C8C0F601848D958DD5015D969C9391
:1028A0008E935C971782108611861286D6011B962E
:1028B0001D921D921D921C921E979924380141C0B1
:1028C000C6010E94B810FC01009709F4ABC085E076
:1028D00016950795F794E7948A95D1F71E2D1F70EA
:1028E0008081882311F0853ED1F4992091F4D5019F
:1028F00053961C93539720912702309128024091C0
:10290000290250912A021F962D933D934D935C937B
:1029100052978081882399F49924939421C0C3010C
:10292000BF014BE050E00E942501009751F4882D33
:102930008073803309F476C0C501612F6FC099247C
:102940009394F601E384F48405851685848995893A
:10295000A689B789E816F9060A071B0708F4B0CF5D
:10296000882D8271823109F05DC0992041F0C50146
:1029700061E00E94650E8C01009789F453C0D60176
:1029800016968C91823009F44DC0C6010E94BD1389
:10299000882309F447C0F501138A0BE313E080E2B2
:1029A000D8011D928A95E9F7D801FE0131968BE096
:1029B00001900D928150E1F7E0913903F0913A03D3
:1029C000309739F0B801625F7F4FC8014096099592
:1029D00009C081E298E2F801918B808B80E098E059
:1029E00097878687D80150968D919C9151975396E1
:1029F0009C938E93529759969C938E9358971E96BC
:102A00008D919C911F9757969C938E9356970E94F9
:102A10002815882339F0C501F5016389482D0E94E6
:102A2000531101C080E02B960FB6F894DEBF0FBEA5
:102A3000CDBFCF91DF911F910F91FF90EF90DF906D
:102A4000CF90BF90AF909F908F907F906F900895A0
:102A500080913D05882399F14091270250912802E9
:102A60006091290270912A0280913B0590913C056A
:102A70002BE333E00E94490B882319F140913E0576
:102A800050913F05609140057091410541155105F8
:102A90006105710591F080913B0590913C052BE318
:102AA00033E00E94490B882361F010923E0510929A
:102AB0003F05109240051092410510923D0581E0BE
:102AC000089580E00895EF92FF920F931F937B018A
:102AD0008C010E9428158823A9F0EBE3F3E0119202
:102AE00085E0EB33F807D9F7E0922702F09228024D
:102AF0000093290210932A0280913D058160809302
:102B00003D0581E01F910F91FF90EF900895DF92B6
:102B1000EF92FF920F931F937B018C01D42E809133
:102B2000270290912802A0912902B0912A028E15C5
:102B30009F05A007B107C1F00E9428158823D9F08E
:102B400080913B0590913C05B801A7012BE333E050
:102B50000E94330C882379F0E0922702F092280239
:102B60000093290210932A0280913D058D298093BC
:102B70003D0581E001C080E01F910F91FF90EF9033
:102B8000DF9008958F929F92AF92BF92CF92DF9283
:102B9000EF92FF920F931F93CF93DF936C01142F4B
:102BA00070933C0560933B05442321F488249924C9
:102BB000540140C0453008F01CC160E070E080E086
:102BC00090E040E00E948715882309F412C1C12FCC
:102BD000D0E02197FE0174E0EE0FFF1F7A95E1F738
:102BE000E55CFC4FE254FE4F8081EE5BF14090E0EB
:102BF0008F779070892B09F0FCC0E653FE4F8081DF
:102C00009181A281B38184369105A105B10508F4B3
:102C1000F0C064E0CC0FDD1F6A95E1F7CF5FDA4FBB
:102C200088809980AA80BB8081149104A104B1049A
:102C300009F4DFC0C501B40140E00E948715882374
:102C400009F4D7C080914603909147038050924089
:102C500009F0CFC020914B03222309F4CAC0809110
:102C6000490390914A03892B09F4C3C0809148031A
:102C7000882309F4BEC0F601228B80914803848327
:102C8000158661E070E007C04F5FF601458741504F
:102C9000483008F0AEC0F6014585848190E09B0184
:102CA000042E02C0220F331F0A94E2F78217930703
:102CB00059F720915103309152032115310519F034
:102CC00040E050E008C020915F03309160034091E4
:102CD000610350916203F601258336834783508751
:102CE000E0904903F0904A0300E010E0E80CF91C82
:102CF0000A1D1B1DE38AF48A058B168B80914C03F9
:102D000090914D03918F808F60914B0370E080E034
:102D100090E00E9489276E0D7F1D801F911FF60194
:102D2000628F738F848F958F20914C0330914D0368
:102D300055E0220F331F5A95E1F721503E4F232FC4
:102D40003327269540E050E0260F371F481F591FB4
:102D500026873787408B518B80914E0390914F038C
:102D6000009719F0A0E0B0E008C080915B0390915B
:102D70005C03A0915D03B0915E0385017401E21ACA
:102D8000F30A040B150BA8019701280F391F4A1FDE
:102D90005B1FF601058404C0569547953795279526
:102DA0000A94D2F72187328743875487253FFFE073
:102DB0003F07F0E04F07F0E05F0710F48CE006C03B
:102DC000255F3F4F4040504028F480E1F601878B5B
:102DD00081E010C08091670390916803A09169031E
:102DE000B0916A03F601828F938FA48FB58F80E232
:102DF000EECF80E0DF91CF911F910F91FF90EF9088
:102E0000DF90CF90BF90AF909F908F9008954F929A
:102E10005F926F927F928F929F92AF92BF92CF926A
:102E2000DF92EF92FF920F931F93CF93DF93EC010A
:102E30006A017B01280139014230510561057105A4
:102E400008F46FC089859A85AB85BC850196A11D64
:102E5000B11D84179507A607B70708F462C02B8930
:102E60003C894D895E898F89803129F499278F2D7E
:102E70007E2D6D2D09C0C701B60117E09695879587
:102E8000779567951A95D1F74B015C01820E931ED9
:102E9000A41EB51E8091270290912802A0912902BC
:102EA000B0912A0288169906AA06BB0639F0C50118
:102EB000B40140E00E948715882399F18F89803101
:102EC00049F4F601F070EE0FFF1FE55CFC4F5182F4
:102ED00040820DC0F601EF77F070EE0FFF1FEE0F8E
:102EE000FF1FE55CFC4F40825182628273828091B9
:102EF0003D05816080933D058A89823080F08D8117
:102F00009E81AF81B885880E991EAA1EBB1E809235
:102F10003E0590923F05A0924005B092410581E0A8
:102F200001C080E0DF91CF911F910F91FF90EF9052
:102F3000DF90CF90BF90AF909F908F907F906F90D9
:102F40005F904F900895CF92DF92EF92FF920F9390
:102F50001F93CF93DF93EC017A018B01690189857F
:102F60009A85AB85BC850196A11DB11D8417950777
:102F7000A607B70708F450C02B893C894D895E89A4
:102F80008F89803129F49927812F702F6F2D09C0E7
:102F9000C801B701E7E09695879577956795EA951B
:102FA000D1F7260F371F481F591F80912702909194
:102FB0002802A0912902B0912A02281739074A074E
:102FC0005B0739F0CA01B90140E00E9487158823E8
:102FD00019F18F89803159F4F701F070EE0FFF1F5E
:102FE000E55CFC4F80819181A0E0B0E00EC0F7016C
:102FF000EF77F070EE0FFF1FEE0FFF1FE55CFC4F49
:1030000080819181A281B381BF70F6018083918319
:10301000A283B38381E001C080E0DF91CF911F9153
:103020000F91FF90EF90DF90CF900895AF92BF92F5
:10303000CF92DF92EF92FF920F931F93DF93CF9384
:1030400000D000D0CDB7DEB76C017A018B0182E0F1
:1030500090E0A0E0B0E0F60180839183A283B38387
:103060005E010894A11CB11CC601B801A70195011D
:103070000E94A317882319F1C601B801A70100E037
:1030800010E020E030E00E9407178823C1F0E980BB
:10309000FA800B811C81F6018789803129F088EF45
:1030A0009FEFAFEFBFE004C088EF9FEFA0E0B0E07C
:1030B000E816F9060A071B07B8F281E001C080E0B4
:1030C0000F900F900F900F90CF91DF911F910F9164
:1030D000FF90EF90DF90CF90BF90AF9008954F9208
:1030E0005F926F927F928F929F92AF92BF92CF9298
:1030F000DF92EF92FF920F931F93DF93CF9300D055
:1031000000D0CDB7DEB76C0149835A836B837C83D3
:103110003901EE24FF2487012E010894411C511C23
:10312000812CA2E09A2EA12CB12C49815A816B816D
:103130007C81C60192010E94A317882351F1D50119
:10314000C401F601058404C0880F991FAA1FBB1F84
:103150000A94D2F7E80EF91E0A1F1B1F29813A8133
:103160004B815C818789803129F088EF9FEFAFEF39
:10317000BFE004C088EF9FEFA0E0B0E02817390758
:103180004A075B0790F2F301E082F1820283138326
:1031900081E00F900F900F900F90CF91DF911F91D2
:1031A0000F91FF90EF90DF90CF90BF90AF909F90E6
:1031B0008F907F906F905F904F9008952F923F92E5
:1031C0004F925F926F927F928F929F92AF92BF9237
:1031D000CF92DF92EF92FF920F931F93DF93CF93E3
:1031E000CDB7DEB72F970FB6F894DEBF0FBECDBFB9
:1031F0001C014A875B876C877D873F872E87D901B3
:103200000D911D912D913C9101151105210531055F
:1032100049F0480159010894811C911CA11CB11C62
:10322000198610C0FC0180809180A280B38019862D
:103230008A859B85AC85BD850197A105B10511F4F3
:1032400091E09987D10119968D919D910D90BC9136
:10325000A02D0196A11DB11D8D839E83AF83B887DC
:10326000750164014424552432018E010F5F1F4F04
:10327000F10181859285A385B485481659066A06B1
:103280007B0608F090C08D819E81AF81B8858C153A
:103290009D05AE05BF0550F482E0882E912CA12C2F
:1032A000B12CB2E0CB2ED12CE12CF12CC101B70115
:1032B000A60198010E94A317882309F474C089818C
:1032C0009A81AB81BC81A70196012F5F3F4F4F4F81
:1032D0005F4F0097A105B10519F049015A010DC0D2
:1032E000281939094A095B098A859B85AC85BD8502
:1032F000281739074A075B0759F00894411C511CED
:10330000611C711C0894C11CD11CE11CF11CB0CFC4
:10331000C101A601B7010FEF1FEF2FEF3FE00E94A1
:103320000717882399F43FC0260137010894410804
:10333000510861087108C101B301A201970186011A
:103340000E940717882379F1730162018C149D0490
:10335000AE04BF0448F3AE85BF854D915D916D917C
:103360007C91411551056105710539F0C101950147
:1033700084010E9407178823B1F0EE85FF858082C3
:103380009182A282B382F985FF2359F00894811CAF
:10339000911CA11CB11CD1018D929D92AD92BC9249
:1033A000139781E001C080E02F960FB6F894DEBF3E
:1033B0000FBECDBFCF91DF911F910F91FF90EF9086
:1033C000DF90CF90BF90AF909F908F907F906F9045
:1033D0005F904F903F902F900895CF93DF93EC0133
:1033E0008AAD882309F07BC0ABADBCAD109771F0FE
:1033F000ED91FC9111970480F581E02DCD010995A7
:10340000892B09F46CC0EBADFCAD10C0EDADFEAD89
:10341000A081B18114962D913C911597CF01F901AE
:103420000995892B09F45BC0EDADFEADA081B1819A
:1034300016962D913C911797CF01F9010995482FC8
:10344000843261F480913206E0913306F0913406C3
:10345000E80FF11D1082109232062DC08A3059F506
:1034600080913206E0913306F0913406E80FF11DA9
:10347000108280913306909134062AEB35E055E0B6
:103480008234950749F430933406209333069093A1
:103490003606809335060AC082E495E090933406A0
:1034A0008093330630933606209335061092320609
:1034B00081E08093370680913206E0913306F091E7
:1034C0003406E80FF11D40838F5F809332068091B0
:1034D0003206883728F087E78093320601C040E043
:1034E000842FDF91CF910895FC0114AE13AE16AE78
:1034F00015AE1092370612AE1092320682E495E0B5
:1035000090933406809333068AEB95E090933606C9
:103510008093350615A614A6158214821382128292
:103520001182108212A611A610A613A61782168267
:1035300080E090E0A0E0B0E084A395A3A6A3B7A3A9
:1035400080A391A3A2A3B3A3848F958FA68FB78FD7
:10355000808F918FA28FB38F848B958BA68BB78B27
:10356000808B918BA28BB38B84879587A687B78737
:1035700080879187A287B3870895EF92FF920F9378
:103580001F938C017B010E94741AF801F4AEE3AE24
:103590001F910F91FF90EF90089580913706089545
:1035A0001092370680913506909136060895FC01F9
:1035B00083AD94AD009711F485AD96AD0E94D325EF
:1035C0000895FC0183AD94ADAB0160E070E000971D
:1035D00019F00E94FF1D04C085AD96AD0E94D42352
:1035E0006AE070E080E090E00E94232208956F92EC
:1035F0007F928F929F92AF92BF92CF92DF92EF9283
:10360000FF920F931F93CF93DF933C01EB01DB01FC
:103610000D900020E9F71197A61BB70BFB01EA0FED
:10362000FB1F349780818A3259F421E0AD01445068
:10363000504001C02F5F822F90E084179507D0F390
:10364000CE0169E172E00E945301009709F4DFC0E6
:10365000CE016CE270E00E9432016C010894C11C42
:10366000D11CC6010E9403014B015C010E94EA25A6
:103670007B018C01C80120E137E240E050E00E946C
:10368000C727F3012083B701C80120E137E240E0FA
:1036900050E00E94C72724E630E040E050E00E945E
:1036A000C727F3012183B701C80124E630E040E0D9
:1036B00050E00E94C727F3016283C501B40120E0F6
:1036C00030E040E85FE30E945A269B01AC01CA014A
:1036D000B90120E030E04AE754E40E9426270E9426
:1036E000EA25F30177836683C6016CE270E00E94ED
:1036F00032018C010F5F1F4FC8010E940301F301CB
:103700006087718782879387C8016CE270E00E94AE
:103710003201FC01019621812E3411F0233519F478
:10372000F30120A705C02C3209F071C1F30110A6E6
:103730006CE270E00E9432018C010F5F1F4FC801E4
:103740000E940301F3016487758786879787C80104
:103750006CE270E00E943201FC0101962181273564
:1037600011F0253419F4F30121A705C02C3209F01A
:103770004EC1F30111A66CE270E00E9432018C018F
:103780000F5F1F4FC8010E940701F30184A7C80102
:103790006CE270E00E9432018C010F5F1F4FC80184
:1037A0000E940701F30185A7C8016CE270E00E9446
:1037B00032018C010F5F1F4FC8010E940301F3010A
:1037C00064A375A386A397A3C8016CE270E00E946E
:1037D00032018C010F5F1F4FC8010E940301F301EA
:1037E000648B758B868B978BC8016CE270E00E94AE
:1037F000320101966CE270E00E94320101960E9453
:103800000301F301608B718B828B938BFEC0CE0121
:1038100060E272E00E945301009709F4F8C0CE0103
:103820006CE270E00E9432016C010894C11CD11C52
:10383000C6010E9403014B015C010E94EA257B0145
:103840008C01C80120E137E240E050E00E94C72728
:10385000F3012083B701C80120E137E240E050E0E6
:103860000E94C72724E630E040E050E00E94C727CE
:10387000F3012183B701C80124E630E040E050E0C5
:103880000E94C727F3016283C501B40120E030E044
:1038900040E85FE30E945A269B01AC01CA01B901CE
:1038A00020E030E04AE754E40E9426270E94EA25FF
:1038B000F30177836683C6016CE270E00E943201F7
:1038C000FC019C012F5F3F4F8181813421F481E015
:1038D000F30183A705C0863509F099C0F30113A64B
:1038E000C9016CE270E00E9432018C010F5F1F4F32
:1038F000C8010E940301F301608771878287938763
:10390000C8016CE270E00E943201FC010196218145
:103910002E3411F0233519F4F30120A705C02C3201
:1039200009F075C0F30110A66CE270E00E9432014C
:103930008C010F5F1F4FC8010E940301F3016487D0
:10394000758786879787C8016CE270E00E94320114
:10395000FC0101962181273511F0253419F4F3017A
:1039600021A705C02C3209F052C0F30111A66CE268
:1039700070E00E9432018C010F5F1F4FC8010E944E
:103980000301F301608F718F828F938FC8016CE206
:1039900070E00E9432018C010F5F1F4FC8010E942E
:1039A0000301F301648F758F868F978FC8016CE2D6
:1039B00070E00E94320101960E9403010E94EA25F4
:1039C0007B018C01C80120E137E240E050E00E9419
:1039D000C727F3012583B701C80120E137E240E0A2
:1039E00050E00E94C72724E630E040E050E00E940B
:1039F000C727F3012483B701C80124E630E040E083
:103A000050E00E94C727F301638381E001C080E09A
:103A1000DF91CF911F910F91FF90EF90DF90CF90AA
:103A2000BF90AF909F908F907F906F9008950F936D
:103A30001F93CF93DF93FC01738D76957170A685EC
:103A4000B7859585772329F08C91892309F454C093
:103A500004C08C91892309F04FC08389948920E0A8
:103A600001972FEF8F3F9207D9F7C589D689A68591
:103A7000B785158560E031E040E050E000E0CE0120
:103A8000202F01972FEF8F3F9207D9F78C91812339
:103A900011F0632B03C0832F80956823330F4F5F92
:103AA0005F4F4830510559F78789908D20E0019785
:103AB0002FEF8F3F9207D9F77111609580917A06A9
:103AC00020917B0690E001968F73907030E0821712
:103AD000930779F0E0917A06F0E0E65CF94F6083B5
:103AE00080917A0690E001968F73907080937A06A9
:103AF00003C0838D8160838FDF91CF911F910F91E0
:103B000008951F920F920FB60F9211242F933F9397
:103B10004F935F936F937F938F939F93AF93BF93D5
:103B2000EF93FF938091380690913906009711F03A
:103B30000E94171DFF91EF91BF91AF919F918F91BF
:103B40007F916F915F914F913F912F910F900FBE99
:103B50000F901F9018951F920F920FB60F9211247D
:103B60002F933F934F935F936F937F938F939F9385
:103B7000AF93BF93EF93FF938091380690913906EE
:103B8000009711F00E94171DFF91EF91BF91AF9127
:103B90009F918F917F916F915F914F913F912F9165
:103BA0000F900FBE0F901F9018951F920F920FB697
:103BB0000F9211242F933F934F935F936F937F93B3
:103BC0008F939F93AF93BF93EF93FF9380913806AA
:103BD00090913906009711F00E94171DFF91EF9107
:103BE000BF91AF919F918F917F916F915F914F9115
:103BF0003F912F910F900FBE0F901F901895CF926D
:103C0000DF92EF92FF920F931F93CF93DF93EC011C
:103C10007A018B011A8E198E188E1F8A1E8A1D8AB0
:103C20001C8A1B8A20E030E06901CC0CDD1CC20E2E
:103C3000D31EB601660F771F660F771FAB0148587A
:103C40005F4FFA0185919591A591B4918E159F05CD
:103C5000A007B107E9F4FB01E458FF4F8591949167
:103C60009C8B8B8BFB01E258FF4F859194919E8B2F
:103C70008D8BFB01E058FF4F85919491988F8F8B2E
:103C8000FB01EE57FF4F859194919A8F898F06C063
:103C90002F5F3F4F2D30310509F0C6CF8F89988DAA
:103CA000892B09F449C04C85463108F03DC09091FC
:103CB0006800483010F484E005C04E3010F082E017
:103CC00001C081E0892B80936800483028F4EDE63C
:103CD000F0E0ADE6B0E00BC04E3028F0ECE6F0E0EE
:103CE000ACE6B0E004C0EBE6F0E0ABE6B0E050815B
:103CF000483040F481E090E002C0880F991F4A9557
:103D0000E2F710C0242F30E04E3018F42850304035
:103D100002C02E50304081E090E002C0880F991F11
:103D20002A95E2F7852B8C93898D9A8D20E0019757
:103D30002FEF8F3F9207D9F780913806909139067F
:103D40008C179D0781F08B8D8E7F8B8F9FB7F8949A
:103D500010927A0680917A0680937B06D09339067A
:103D6000C09338069FBFDF91CF911F910F91FF90B5
:103D7000EF90DF90CF900895FC014485463180F5A7
:103D8000483028F4EDE6F0E0ADE6B0E00BC04E3090
:103D900028F4EBE6F0E0ABE6B0E004C0ECE6F0E0DF
:103DA000ACE6B0E05081483040F481E090E002C0E1
:103DB000880F991F4A95E2F710C0242F30E04E304B
:103DC00018F42850304002C02E50304081E090E07E
:103DD00002C0880F991F2A95E2F7809585238C935E
:103DE0000895FC018FE492E091838083CF010E94CB
:103DF000BC1E0895209138063091390628173907DE
:103E000031F490917B0680917A06981719F42FEF80
:103E10003FEF0FC0E0917B06F0E0E65CF94F2081B8
:103E200080917B0690E001968F73907080937B0663
:103E300030E0C901089520913806309139062817DD
:103E4000390719F020E030E00EC080917A06209109
:103E50007B0690E0805C9F4F821B910960E470E0DC
:103E60000E94B4279C01C90108950F931F93DC01A0
:103E700059968D919C915A97892B49F481E090E055
:103E800013969C938E93129720E030E097C00FB763
:103E9000F8945B968C915B975196ED91FC915297BB
:103EA00050962C91509781FF8DC08081822B80830A
:103EB00059968D919C915A97059620E001972FEF86
:103EC0008F3F9207D9F75B968C915B9781FF35C046
:103ED00031E040E050E070E010E0832F90E0862376
:103EE00097235196ED91FC91529750962C915097B3
:103EF000892B29F0808120952823208303C080818D
:103F0000822B808359968D919C915A97212F0197EE
:103F10002FEF8F3F9207D9F7330F4F5F5F4F483036
:103F20005105D9F65196ED91FC915297908150969A
:103F30008C9150978095892333C031E040E050E068
:103F400070E010E0832F90E0862397235196ED9147
:103F5000FC91529750962C915097892B21F080819B
:103F6000822B808304C0808120952823208359964A
:103F70008D919C915A97212F01972FEF8F3F920798
:103F8000D9F7330F4F5F5F4F48305105D9F651963F
:103F9000ED91FC915297808150969C915097892B7E
:103FA00080830FBF59968D919C915A9720E001977D
:103FB0002FEF8F3F9207D9F721E030E0C9011F9121
:103FC0000F910895808120952823208371CF20911F
:103FD0003806309139062817390749F49FB7F89405
:103FE00010927A0680917A0680937B069FBF08958F
:103FF00020913806309139062817390731F490910D
:104000007B0680917A06981719F42FEF3FEF0AC0CC
:10401000E0917B06F0E0E65CF94F8081282F3327A2
:1040200027FD3095C90108951F93CF93DF93EC01CD
:10403000162F862F60E00E94B7228B8D81FD04C071
:10404000812F61E00E94F6221C87212F30E0C901F8
:104050008A5B9E4FFC0184918D872E5C3E4FF90157
:104060006491E62FF0E0EE0FFF1FE85DFE4F8591B3
:1040700094919F878E87DF91CF911F910895FF9232
:104080000F931F938C01F62E862F61E00E94B722BA
:104090008F2D61E00E94F6228F2D90E0FC01EA5BFB
:1040A000FE4FE491D8015096EC9350978E5C9E4F52
:1040B000FC016491E62FF0E0EE0FFF1FE25EFE4F81
:1040C0008591949152969C938E9351971F910F9145
:1040D000FF900895FF920F931F938C01F62EFC0121
:1040E0001382128288EE93E0A0E0B0E0848395838F
:1040F000A683B7838FE492E091838083148A138A26
:10410000168A158A108E178A128E118E838D217051
:10411000220F8C7F822B838FC801642F0E943F2047
:10412000C8016F2D0E9414201F910F91FF900895D8
:104130000F931F93CF93DF93BC018230910510F44E
:1041400062E070E0E0913107F091320740E050E02A
:10415000A0E0B0E024C08081918186179707D0F05D
:104160008617970771F482819381109729F013962F
:104170009C938E9312972CC09093320780933107B3
:1041800027C04115510519F08417950718F48D01C2
:10419000AC01EF01DF01828193819C01F90130972D
:1041A000D1F641155105F9F0CA01861B970B8430F1
:1041B000910580F48A819B810115110521F0F80198
:1041C0009383828304C09093320780933107FE016A
:1041D000329645C0FE01E80FF91F61937193029773
:1041E000998388833CC080912F0790913007892B59
:1041F00041F480912D0290912E029093300780938C
:104200002F0740912F02509130024115510541F482
:104210004DB75EB780912B0290912C02481B590B31
:1042200020912F073091300724173507B0F4CA01C9
:10423000821B930B8617970780F0AB014E5F5F4F91
:104240008417950750F0420F531F50933007409347
:104250002F07F9016193719302C0E0E0F0E0CF0114
:10426000DF91CF911F910F910895CF93DF939C0120
:10427000009709F48FC0EC0122971B821A8260918B
:104280003107709132076115710581F48881998138
:10429000820F931F20912F0730913007281739077D
:1042A00039F5D0933007C0932F0774C0DB0140E08D
:1042B00050E0AC17BD0708F1BB83AA83FE01219132
:1042C0003191E20FF31FAE17BF0779F48D919C91E6
:1042D0001197280F391F2E5F3F4F3983288312967D
:1042E0008D919C9113979B838A834115510571F49D
:1042F000D0933207C09331074DC012968D919C9197
:104300001397AD01009711F0DC01D3CFDA011396BA
:10431000DC93CE931297FA0121913191E20FF31FB2
:10432000CE17DF0769F488819981280F391F2E5F26
:104330003F4FFA01318320838A819B81938382835B
:10434000E0E0F0E0DB0112968D919C9113970097CD
:1043500019F0BC01FD01F6CFAB014E5F5F4FDB01F1
:104360008D919C91840F951F20912F0730913007DC
:104370002817390779F4309729F4109232071092F0
:10438000310702C0138212824250504050933007CE
:1043900040932F07DF91CF9108951F920F920FB690
:1043A0000F9211242F933F938F939F93AF93BF93BB
:1043B0008091800690918106A0918206B09183063B
:1043C000309184060196A11DB11D232F2D5F2D373D
:1043D00020F02D570196A11DB11D209384068093D6
:1043E000800690938106A0938206B0938306809105
:1043F0007C0690917D06A0917E06B0917F06019685
:10440000A11DB11D80937C0690937D06A0937E062E
:10441000B0937F06BF91AF919F918F913F912F9164
:104420000F900FBE0F901F9018958FB7F8942091A2
:1044300080063091810640918206509183068FBF9D
:10444000B901CA0108959B01AC017FB7F89480912E
:104450007C0690917D06A0917E06B0917F0666B5A0
:10446000A89B05C06F3F19F00196A11DB11D7FBF2C
:10447000BA2FA92F982F8827860F911DA11DB11D36
:1044800062E0880F991FAA1FBB1F6A95D1F7BC0174
:104490002DC0FFB7F89480917C0690917D06A09185
:1044A0007E06B0917F06E6B5A89B05C0EF3F19F0E8
:1044B0000196A11DB11DFFBFBA2FA92F982F8827E4
:1044C0008E0F911DA11DB11DE2E0880F991FAA1F3B
:1044D000BB1FEA95D1F7861B970B885E9340C8F205
:1044E000215030404040504068517C4F21153105EB
:1044F0004105510571F60895789484B5826084BDB4
:1045000084B5816084BD85B5826085BD85B58160D7
:1045100085BDEEE6F0E0808181608083E1E8F0E037
:104520001082808182608083808181608083E0E866
:10453000F0E0808181608083E1EBF0E08081846045
:104540008083E0EBF0E0808181608083EAE7F0E047
:1045500080818460808380818260808380818160AB
:1045600080838081806880831092C1000895CF93FA
:10457000DF93482F50E0CA018A5B9E4FFC013491C3
:104580004E5C5E4FFA018491882369F190E0880FB8
:10459000991FFC01EC5EFE4FA591B491FC01E25E17
:1045A000FE4FC591D491662351F42FB7F8948C91A6
:1045B000932F909589238C93888189230BC0623037
:1045C00061F42FB7F8948C91932F909589238C9355
:1045D0008881832B88832FBF06C09FB7F8948C9166
:1045E000832B8C939FBFDF91CF910895482F50E08C
:1045F000CA01865A9E4FFC012491CA018A5B9E4FD4
:10460000FC0194914E5C5E4FFA013491332309F41E
:1046100040C0222351F1233071F0243028F421309E
:10462000A1F0223011F514C02630B1F02730C1F0CE
:104630002430D9F404C0809180008F7703C080912A
:1046400080008F7D8093800010C084B58F7702C07A
:1046500084B58F7D84BD09C08091B0008F7703C081
:104660008091B0008F7D8093B000E32FF0E0EE0FDB
:10467000FF1FE25EFE4FA591B4912FB7F894662319
:1046800021F48C919095892302C08C91892B8C9375
:104690002FBF089508951F920F920FB60F92112405
:1046A0002F933F934F938F939F93EF93FF9380911B
:1046B000C00082FD1DC04091C6002091C50630910A
:1046C000C6062F5F3F4F2F7330708091C7069091C1
:1046D000C8062817390771F0E091C506F091C606A3
:1046E000EB57F94F40833093C6062093C50602C0AE
:1046F0008091C600FF91EF919F918F914F913F91D3
:104700002F910F900FBE0F901F901895E0911907F1
:10471000F0911A07E05CFF4F8191919120813181E6
:10472000821B930B8F739070892B11F00E944A2388
:1047300008951F920F920FB60F9211242F933F935B
:104740008F939F93EF93FF932091090730910A076E
:1047500080910B0790910C072817390731F480914D
:10476000C1008F7D8093C10014C0E0910B07F091D0
:104770000C07E753F94F208180910B0790910C07AC
:1047800001968F73907090930C0780930B07209382
:10479000C600FF91EF919F918F913F912F910F90C4
:1047A0000FBE0F901F901895AF92BF92DF92EF92BD
:1047B000FF920F931F93CF93DF93EC017A018B014C
:1047C000DD24403081EE580780E0680780E07807FC
:1047D00011F0DD24D39491E0A92EB12CEC89FD8950
:1047E000DD2069F0C50108A002C0880F991F0A9456
:1047F000E2F7808360E079E08DE390E005C010820D
:1048000060E874E88EE190E0A80197010E94C72754
:104810002150304040405040569547953795279558
:1048200080E12030380720F0DD2011F0DD24D6CFE4
:10483000E889F9893083EA89FB89208319A2EE8906
:10484000FF89408121E030E0C9010C8C02C0880F53
:10485000991F0A94E2F7482B4083EE89FF89408133
:10486000C9010D8C02C0880F991F0A94E2F7482BEA
:104870004083EE89FF894081C9010E8C02C0880FF8
:10488000991F0A94E2F7482B4083EE89FF898081C3
:104890000F8C02C0220F331F0A94E2F720952823C1
:1048A0002083DF91CF911F910F91FF90EF90DF90C8
:1048B000BF90AF900895DC011C96ED91FC911D977F
:1048C000E05CFF4F2191319180819181281B390B50
:1048D0002F733070C9010895DC011C96ED91FC9195
:1048E0001D97E05CFF4F20813181E054F040DF01F3
:1048F000AE5BBF4F8D919C9111972817390719F422
:104900002FEF3FEF07C08D919C91E80FF91F808139
:10491000282F30E0C9010895DC011C96ED91FC912F
:104920001D97E05CFF4F20813181E054F040DF01B2
:10493000AE5BBF4F8D919C9111972817390719F4E1
:104940002FEF3FEF10C08D919C911197E80FF91F49
:1049500020818D919C91119701968F739070119683
:104960009C938E9330E0C9010895DC0191968C915F
:104970009197882339F05496ED91FC915597808159
:1049800086FFF9CF91961C920895CF93DF93EC01A7
:10499000EE85FF85E05CFF4F20813181E054F040DF
:1049A0002F5F3F4F2F733070DF01AE5BBF4F8D9194
:1049B0009C91119728173907D1F3E05CFF4F808154
:1049C0009181E054F040E80FF91F6083EE85FF8588
:1049D000E05CFF4F31832083EE89FF89208181E0F5
:1049E00090E00F8C02C0880F991F0A94E2F7282BE1
:1049F000208381E089A3EC89FD89808180648083A4
:104A000081E090E0DF91CF9108951092100710920D
:104A10000F0788EE93E0A0E0B0E080931107909339
:104A20001207A0931307B09314078FE592E09093B9
:104A30000E0780930D0785E896E090931A07809300
:104A4000190789EC96E090931C0780931B0785EC6F
:104A500090E090931E0780931D0784EC90E0909364
:104A6000200780931F0780EC90E0909322078093AB
:104A7000210781EC90E0909324078093230782EC38
:104A800090E0909326078093250786EC90E0909322
:104A900028078093270784E08093290783E0809389
:104AA0002A0787E080932B0785E080932C0781E01D
:104AB00080932D070895CF93DF930E947C220E945C
:104AC000DC03C6E8D3E20E9457032097E1F30E947B
:104AD0008623F9CFCF92DF92EF92FF920F931F932D
:104AE000CF93DF937C016B018A01C0E0D0E00FC05F
:104AF000D6016D916D01D701ED91FC910190F0818E
:104B0000E02DC7010995C80FD91F015010400115AC
:104B1000110571F7CE01DF91CF911F910F91FF9099
:104B2000EF90DF90CF900895EF92FF920F931F9335
:104B30008C01DC01ED91FC910190F081E02D6DE0A4
:104B400009957C01D801ED91FC910190F081E02D57
:104B5000C8016AE009959C012E0D3F1DC9011F91F6
:104B60000F91FF90EF900895CF93DF93EC016115C3
:104B7000710519F420E030E00FC0DB010D9000203A
:104B8000E9F71197A61BB70BE881F9810280F38141
:104B9000E02DAD0109959C01C901DF91CF910895E8
:104BA0000E94B4250895EF92FF920F931F937C010A
:104BB0000E94B4258C01C7010E949425080F191F7B
:104BC000C8011F910F91FF90EF900895BAD008F49B
:104BD00081E008951AD188F09F5790F0B92F992756
:104BE000B751A0F0D1F0660F771F881F991F1AF0F8
:104BF000BA95C9F712C0B13081F021D1B1E0089562
:104C00001EC1672F782F8827B85F39F0B93FCCF3E2
:104C1000869577956795B395D9F73EF490958095ED
:104C2000709561957F4F8F4F9F4F0895E89409C00D
:104C300097FB3EF490958095709561957F4F8F4FCF
:104C40009F4F9923A9F0F92F96E9BB279395F695E5
:104C5000879577956795B795F111F8CFFAF4BB0F63
:104C600011F460FF1BC06F5F7F4F8F4F9F4F16C0C7
:104C7000882311F096E911C0772321F09EE8872F51
:104C8000762F05C0662371F096E8862F70E060E00D
:104C90002AF09A95660F771F881FDAF7880F969586
:104CA000879597F908958AD018F011F08ED038F4CE
:104CB00082C0C6C0E92FA1D0B0F35523C9F3E7FBEA
:104CC0006217730784079507A8F199F3E92FFF2767
:104CD00088232AF03197660F771F881FDAF7952F00
:104CE0005527442332F091505040220F331F441F68
:104CF000D2F7BB27E91BF50B621B730B840BB109C1
:104D0000C1F222F4620F731F841FB11D31972AF084
:104D1000660F771F881FBB1FEFCF915050405AF08E
:104D200041F0882332F0660F771F881F9150504062
:104D3000C1F7939530C08695779567959F5FD9F7B2
:104D4000F8CF990F0008550FAA0BE0E8FEEF1616F2
:104D50001706E807F907C0F012161306E407F5076F
:104D600098F0621B730B840B950B39F40A2661F0E3
:104D7000232B242B252B21F408950A2609F4A14086
:104D8000A6958FEF811D811D089597F99F6780E893
:104D900070E060E008959F3F49F0915028F48695B7
:104DA00077956795B7959F5F80389F4F880F969549
:104DB000879597F908959FEF80EC089500240A9451
:104DC0001616170618060906089500240A941216E6
:104DD0001306140605060895092E0394000C11F419
:104DE000882352F0BB0F40F4BF2B11F460FF04C0C6
:104DF0006F5F7F4F8F4F9F4F089557FD9058440F1F
:104E0000551F59F05F3F71F04795880F97FB991F29
:104E100061F09F3F79F087950895121613061406E6
:104E2000551FF2CF4695F1DF08C016161706180673
:104E3000991FF1CF86957105610508940895E8944E
:104E4000BB2766277727CB0197F908950BD0C4CFEE
:104E5000B5DF28F0BADF18F0952309F096CFABCF75
:104E60001124EECFCADFA0F3959FD1F3950F50E048
:104E7000551F629FF001729FBB27F00DB11D639F0C
:104E8000AA27F00DB11DAA1F649F6627B00DA11DB2
:104E9000661F829F2227B00DA11D621F739FB00D58
:104EA000A11D621F839FA00D611D221F749F3327C8
:104EB000A00D611D231F849F600D211D822F762F61
:104EC0006A2F11249F5750408AF0E1F088234AF05E
:104ED000EE0FFF1FBB1F661F771F881F91505040AA
:104EE000A9F79E3F510570F050CFAACF5F3FECF37A
:104EF000983EDCF3869577956795B795F795E79596
:104F00009F5FC1F7FE2B880F911D9695879597F9A6
:104F10000895629FD001739FF001829FE00DF11D03
:104F2000649FE00DF11D929FF00D839FF00D749F23
:104F3000F00D659FF00D9927729FB00DE11DF91FCF
:104F4000639FB00DE11DF91FBD01CF01112408952C
:104F5000991B79E004C0991F961708F0961B881FCB
:104F60007A95C9F78095089597FB092E07260AD0F0
:104F700077FD04D02ED006D000201AF470956195EC
:104F80007F4F0895F6F7909581959F4F0895A1E280
:104F90001A2EAA1BBB1BFD010DC0AA1FBB1FEE1FB3
:104FA000FF1FA217B307E407F50720F0A21BB30BFE
:104FB000E40BF50B661F771F881F991F1A9469F77A
:104FC00060957095809590959B01AC01BD01CF01D6
:104FD0000895AA1BBB1B51E107C0AA1FBB1FA61740
:104FE000B70710F0A61BB70B881F991F5A95A9F792
:104FF00080959095BC01CD010895EE0FFF1F05909F
:10500000F491E02D0994911106C0803219F0895075
:105010008550D0F708959927882708952F923F92B9
:105020004F925F926F927F928F929F92AF92BF92B8
:10503000CF92DF92EF92FF920F931F93CF93DF9364
:10504000CDB7DEB7CA1BDB0B0FB6F894DEBF0FBEC1
:10505000CDBF09942A88398848885F846E847D840E
:105060008C849B84AA84B984C884DF80EE80FD8010
:105070000C811B81AA81B981CE0FD11D0FB6F89486
:10508000DEBF0FBECDBFED01089511E0C0EBD1E052
:1050900004C0FE010E94FF272296C23BD107C9F738
:1050A000F894FFCF4F4B004E6F20466978004C6F4D
:1050B0006700524D43000D0A556C74696D6174654B
:1050C000204750536C6F6767657220536869656C41
:1050D00064004361726420696E69742E20666169A0
:1050E0006C656421004750534C4F4730302E4C4F75
:1050F0004700436F756C646E7420637265617465FC
:10510000200057726974696E6720746F2000245004
:105110004D544B3331342C302C312C302C302C303E
:105120002C302C302C302C302C302C302C302C309F
:105130002C302C302C302C302C302C302A323900B2
:1051400024504D544B3232302C313030302A3146DD
:1051500000245047434D442C33332C302A3643002F
:10516000526561647921002F000024504D544B306A
:1051700031302C3030322A32440024504D544B31DF
:1051800036312C302A32380024504D544B313833CC
:105190002A33380024504D544B4C4F470024504D77
:1051A000544B3138352C302A32320024504D544B78
:1051B0003030312C3138352C332A334300244750DA
:1051C00047474100244750524D4300FFFFFFFF80F7
:1051D000003507000000000000E3048905F6042FF5
:1051E000054D052705960500000000AC136A250053
:1051F000000000351F6A251B1FFA1EF81FE71F005D
:10520000000000C5246A255B248C246C24B524008E
:105210002A33380024504D544B4C4F470024504DF6
:10522000544B3138352C302A32320024504D544BF7
:105230003030312C3138352C332A33430024475059
:1052400047474100244750524D4300FFFFFFFF8076
:10525000003507000000000000E3048905F6042F74
:10526000054D052705960500000000AC136A2500D2
:10527000000000351F6A251B1FFA1EF81FE71F00DC
:10528000FFFFFFFFFFFFFFFFFFFFFFFFFFFFFFFF2E
:10529000FFFFFFFFFFFFFFFFFFFFFFFFFFFFFFFF1E
:1052A000FFFFFFFFFFFFFFFFFFFFFFFFFFFFFFFF0E
:1052B000FFFFFFFFFFFFFFFFFFFFFFFFFFFFFFFFFE
:107E0000112484B714BE81FFF0D085E080938100F7
:107E100082E08093C00088E18093C10086E0809377
:107E2000C20080E18093C4008EE0C9D0259A86E02C
:107E300020E33CEF91E0309385002093840096BBD3
:107E4000B09BFECF1D9AA8958150A9F7CC24DD24C4
:107E500088248394B5E0AB2EA1E19A2EF3E0BF2EE7
:107E6000A2D0813461F49FD0082FAFD0023811F036
:107E7000013811F484E001C083E08DD089C08234E0
:107E800011F484E103C0853419F485E0A6D080C0E4
:107E9000853579F488D0E82EFF2485D0082F10E0AE
:107EA000102F00270E291F29000F111F8ED06801E7
:107EB0006FC0863521F484E090D080E0DECF843638
:107EC00009F040C070D06FD0082F6DD080E0C81688
:107ED00080E7D80618F4F601B7BEE895C0E0D1E017
:107EE00062D089930C17E1F7F0E0CF16F0E7DF06D8
:107EF00018F0F601B7BEE89568D007B600FCFDCFD4
:107F0000A601A0E0B1E02C9130E011968C91119780
:107F100090E0982F8827822B932B1296FA010C0160
:107F200087BEE89511244E5F5F4FF1E0A038BF0790
:107F300051F7F601A7BEE89507B600FCFDCF97BE46
:107F4000E89526C08437B1F42ED02DD0F82E2BD052
:107F50003CD0F601EF2C8F010F5F1F4F84911BD097
:107F6000EA94F801C1F70894C11CD11CFA94CF0C13
:107F7000D11C0EC0853739F428D08EE10CD085E9AC
:107F80000AD08FE07ACF813511F488E018D01DD067
:107F900080E101D065CF982F8091C00085FFFCCF94
:107FA0009093C60008958091C00087FFFCCF809118
:107FB000C00084FD01C0A8958091C6000895E0E648
:107FC000F0E098E1908380830895EDDF803219F02E
:107FD00088E0F5DFFFCF84E1DECF1F93182FE3DFCA
:107FE0001150E9F7F2DF1F91089580E0E8DFEE27F6
:107FF000FF270994FFFFFFFFFFFFFFFFFFFF0404C0
:00000001FF
